{
  "contractName": "Marketplace",
  "abi": [
    {
      "constant": true,
      "inputs": [],
      "name": "name",
      "outputs": [
        {
          "name": "",
          "type": "string"
        }
      ],
      "payable": false,
      "stateMutability": "view",
      "type": "function"
    },
    {
      "inputs": [],
      "payable": false,
      "stateMutability": "nonpayable",
      "type": "constructor"
    }
  ],
  "bytecode": "0x608060405234801561001057600080fd5b506040805190810160405280601381526020017f55534d204f6e6c696e652053686f7070696e67000000000000000000000000008152506000908051906020019061005c929190610062565b50610107565b828054600181600116156101000203166002900490600052602060002090601f016020900481019282601f106100a357805160ff19168380011785556100d1565b828001600101855582156100d1579182015b828111156100d05782518255916020019190600101906100b5565b5b5090506100de91906100e2565b5090565b61010491905b808211156101005760008160009055506001016100e8565b5090565b90565b6101a0806101166000396000f3fe608060405260043610610041576000357c0100000000000000000000000000000000000000000000000000000000900463ffffffff16806306fdde0314610046575b600080fd5b34801561005257600080fd5b5061005b6100d6565b6040518080602001828103825283818151815260200191508051906020019080838360005b8381101561009b578082015181840152602081019050610080565b50505050905090810190601f1680156100c85780820380516001836020036101000a031916815260200191505b509250505060405180910390f35b60008054600181600116156101000203166002900480601f01602080910402602001604051908101604052809291908181526020018280546001816001161561010002031660029004801561016c5780601f106101415761010080835404028352916020019161016c565b820191906000526020600020905b81548152906001019060200180831161014f57829003601f168201915b50505050508156fea165627a7a723058203b993e98abdd50ee110930e6c9ab40d58254c239a2cb5eceee04d6985435c7da0029",
  "source": "pragma solidity ^0.5.0;\r\n\r\ncontract Marketplace{\r\n\tstring public name; //global variable. Can access it outside the smart contract using public.\r\n\t/*uint public productCount = 0;\r\n    mapping (uint => Product) public products; //uint id is the key for this mapping\r\n\r\n    struct Product{ //every product will follow this pattern\r\n       uint id; //means positive integer\r\n       string name;\r\n       uint price;\r\n       address payable owner;\r\n       bool purchased;\r\n    }\r\n    \r\n\r\n    event productCreated(\r\n       uint id,\r\n       string name,\r\n       uint price,\r\n       address payable owner,\r\n       bool purchased\r\n    );\r\n\r\n     event ProductPurchased(\r\n       uint id,\r\n       string name,\r\n       uint price,\r\n       address payable owner,\r\n       bool purchased\r\n    );*/\r\n\r\n\tconstructor() public{ //  only run once when smart contarct is deployed\r\n         name = \"USM Online Shopping\";\r\n\t} \r\n\r\n   /* function createProduct(string memory _name, uint _price) public{ //_name is local variable\r\n     //Require a valid name\r\n     require(bytes(_name).length > 0);\r\n     //Require a valid price\r\n     require(_price > 0);\r\n       //Make sure parameters are correct\r\n       //Increment Product count\r\n       productCount++;\r\n      //Create products\r\n      //Trigger an event\r\n      products[productCount] = Product(productCount, _name, _price, msg.sender, false);\r\n      emit productCreated(productCount, _name, _price, msg.sender, false);\r\n    }\r\n\r\n    function purchaseProduct(uint _id) public payable{  //use payable keyword to send ether to the seller\r\n  // Fetch the product\r\n    Product memory _product = products[_id];\r\n    // Fetch the owner\r\n    address payable _seller = _product.owner;\r\n    // Make sure the product has a valid id\r\n    require(_product.id > 0 && _product.id <= productCount);\r\n    // Require that there is enough Ether in the transaction\r\n    require(msg.value >= _product.price);\r\n    // Require that the product has not been purchased already\r\n    require(!_product.purchased);\r\n    // Require that the buyer is not the seller\r\n    require(_seller != msg.sender);\r\n    // Transfer ownership to the buyer\r\n    _product.owner = msg.sender;\r\n    // Mark as purchased\r\n    _product.purchased = true;\r\n    // Update the product\r\n    products[_id] = _product;\r\n    // Pay the seller by sending them Ether\r\n    address(_seller).transfer(msg.value);\r\n    // Trigger an event\r\n    emit ProductPurchased(productCount, _product.name, _product.price, msg.sender, true);\r\n\r\n    }*/\r\n}",
  "sourcePath": "C:/Users/GloryPc/marketplace/src/contracts/Marketplace.sol",
  "compiler": {
    "name": "solc",
    "version": "0.5.0+commit.1d4f565a.Emscripten.clang"
  },
  "schemaVersion": "3.0.1",
  "updatedAt": "2020-09-18T22:59:24.126Z",
  "devdoc": {
    "methods": {}
  },
  "userdoc": {
    "methods": {}
  }
}