{
  "contractName": "USM_Marketplace",
  "abi": [
    {
      "constant": true,
      "inputs": [],
      "name": "name",
      "outputs": [
        {
          "name": "",
          "type": "string"
        }
      ],
      "payable": false,
      "stateMutability": "view",
      "type": "function",
      "signature": "0x06fdde03"
    },
    {
      "constant": true,
      "inputs": [],
      "name": "productCounter",
      "outputs": [
        {
          "name": "",
          "type": "uint256"
        }
      ],
      "payable": false,
      "stateMutability": "view",
      "type": "function",
      "signature": "0x1f16653b"
    },
    {
      "constant": true,
      "inputs": [
        {
          "name": "",
          "type": "uint256"
        }
      ],
      "name": "usmproducts",
      "outputs": [
        {
          "name": "id",
          "type": "uint256"
        },
        {
          "name": "name",
          "type": "string"
        },
        {
          "name": "price",
          "type": "uint256"
        },
        {
          "name": "owner",
          "type": "address"
        },
        {
          "name": "purchased",
          "type": "bool"
        }
      ],
      "payable": false,
      "stateMutability": "view",
      "type": "function",
      "signature": "0xeb8e187e"
    },
    {
      "inputs": [],
      "payable": false,
      "stateMutability": "nonpayable",
      "type": "constructor",
      "signature": "constructor"
    },
    {
      "anonymous": false,
      "inputs": [
        {
          "indexed": false,
          "name": "id",
          "type": "uint256"
        },
        {
          "indexed": false,
          "name": "name",
          "type": "string"
        },
        {
          "indexed": false,
          "name": "price",
          "type": "uint256"
        },
        {
          "indexed": false,
          "name": "owner",
          "type": "address"
        },
        {
          "indexed": false,
          "name": "purchased",
          "type": "bool"
        }
      ],
      "name": "productCreate",
      "type": "event",
      "signature": "0x809be85b619e8ef899c909c4791d95f2fe9f170a030f6c07aba79c5eac69a6cb"
    },
    {
      "anonymous": false,
      "inputs": [
        {
          "indexed": false,
          "name": "id",
          "type": "uint256"
        },
        {
          "indexed": false,
          "name": "name",
          "type": "string"
        },
        {
          "indexed": false,
          "name": "price",
          "type": "uint256"
        },
        {
          "indexed": false,
          "name": "owner",
          "type": "address"
        },
        {
          "indexed": false,
          "name": "purchased",
          "type": "bool"
        }
      ],
      "name": "productPurchase",
      "type": "event",
      "signature": "0xdb4b01e5f35aae90578cb41c46c5144d06d6acfa26b85045b0e1c32eaa21bd6a"
    },
    {
      "constant": false,
      "inputs": [
        {
          "name": "_name",
          "type": "string"
        },
        {
          "name": "_price",
          "type": "uint256"
        }
      ],
      "name": "createProduct",
      "outputs": [],
      "payable": false,
      "stateMutability": "nonpayable",
      "type": "function",
      "signature": "0xe9300c6c"
    },
    {
      "constant": false,
      "inputs": [
        {
          "name": "_id",
          "type": "uint256"
        }
      ],
      "name": "purchaseProduct",
      "outputs": [],
      "payable": true,
      "stateMutability": "payable",
      "type": "function",
      "signature": "0x38e76a03"
    }
  ],
  "bytecode": "0x6080604052600060015534801561001557600080fd5b506040805190810160405280601381526020017f55534d204f6e6c696e652053686f7070696e670000000000000000000000000081525060009080519060200190610061929190610067565b5061010c565b828054600181600116156101000203166002900490600052602060002090601f016020900481019282601f106100a857805160ff19168380011785556100d6565b828001600101855582156100d6579182015b828111156100d55782518255916020019190600101906100ba565b5b5090506100e391906100e7565b5090565b61010991905b808211156101055760008160009055506001016100ed565b5090565b90565b610c148061011b6000396000f3fe60806040526004361061006d576000357c0100000000000000000000000000000000000000000000000000000000900463ffffffff16806306fdde03146100725780631f16653b1461010257806338e76a031461012d578063e9300c6c1461015b578063eb8e187e1461022d575b600080fd5b34801561007e57600080fd5b5061008761032d565b6040518080602001828103825283818151815260200191508051906020019080838360005b838110156100c75780820151818401526020810190506100ac565b50505050905090810190601f1680156100f45780820380516001836020036101000a031916815260200191505b509250505060405180910390f35b34801561010e57600080fd5b506101176103cb565b6040518082815260200191505060405180910390f35b6101596004803603602081101561014357600080fd5b81019080803590602001909291905050506103d1565b005b34801561016757600080fd5b5061022b6004803603604081101561017e57600080fd5b810190808035906020019064010000000081111561019b57600080fd5b8201836020820111156101ad57600080fd5b803590602001918460018302840111640100000000831117156101cf57600080fd5b91908080601f016020809104026020016040519081016040528093929190818152602001838380828437600081840152601f19601f820116905080830192505050505050509192919290803590602001909291905050506107e9565b005b34801561023957600080fd5b506102666004803603602081101561025057600080fd5b8101908080359060200190929190505050610a00565b60405180868152602001806020018581526020018473ffffffffffffffffffffffffffffffffffffffff1673ffffffffffffffffffffffffffffffffffffffff16815260200183151515158152602001828103825286818151815260200191508051906020019080838360005b838110156102ee5780820151818401526020810190506102d3565b50505050905090810190601f16801561031b5780820380516001836020036101000a031916815260200191505b50965050505050505060405180910390f35b60008054600181600116156101000203166002900480601f0160208091040260200160405190810160405280929190818152602001828054600181600116156101000203166002900480156103c35780601f10610398576101008083540402835291602001916103c3565b820191906000526020600020905b8154815290600101906020018083116103a657829003601f168201915b505050505081565b60015481565b6103d9610afb565b6002600083815260200190815260200160002060a0604051908101604052908160008201548152602001600182018054600181600116156101000203166002900480601f01602080910402602001604051908101604052809291908181526020018280546001816001161561010002031660029004801561049b5780601f106104705761010080835404028352916020019161049b565b820191906000526020600020905b81548152906001019060200180831161047e57829003601f168201915b50505050508152602001600282015481526020016003820160009054906101000a900473ffffffffffffffffffffffffffffffffffffffff1673ffffffffffffffffffffffffffffffffffffffff1673ffffffffffffffffffffffffffffffffffffffff1681526020016003820160149054906101000a900460ff1615151515815250509050600081606001519050600082600001511180156105445750600154826000015111155b151561054f57600080fd5b8160400151341015151561056257600080fd5b816080015115151561057357600080fd5b3373ffffffffffffffffffffffffffffffffffffffff168173ffffffffffffffffffffffffffffffffffffffff16141515156105ae57600080fd5b33826060019073ffffffffffffffffffffffffffffffffffffffff16908173ffffffffffffffffffffffffffffffffffffffff168152505060018260800190151590811515815250508160026000858152602001908152602001600020600082015181600001556020820151816001019080519060200190610631929190610b43565b506040820151816002015560608201518160030160006101000a81548173ffffffffffffffffffffffffffffffffffffffff021916908373ffffffffffffffffffffffffffffffffffffffff16021790555060808201518160030160146101000a81548160ff0219169083151502179055509050508073ffffffffffffffffffffffffffffffffffffffff166108fc349081150290604051600060405180830381858888f193505050501580156106ec573d6000803e3d6000fd5b507fdb4b01e5f35aae90578cb41c46c5144d06d6acfa26b85045b0e1c32eaa21bd6a6001548360200151846040015133600160405180868152602001806020018581526020018473ffffffffffffffffffffffffffffffffffffffff1673ffffffffffffffffffffffffffffffffffffffff16815260200183151515158152602001828103825286818151815260200191508051906020019080838360005b838110156107a657808201518184015260208101905061078b565b50505050905090810190601f1680156107d35780820380516001836020036101000a031916815260200191505b50965050505050505060405180910390a1505050565b600082511115156107f957600080fd5b60008111151561080857600080fd5b60016000815480929190600101919050555060a06040519081016040528060015481526020018381526020018281526020013373ffffffffffffffffffffffffffffffffffffffff16815260200160001515815250600260006001548152602001908152602001600020600082015181600001556020820151816001019080519060200190610898929190610b43565b506040820151816002015560608201518160030160006101000a81548173ffffffffffffffffffffffffffffffffffffffff021916908373ffffffffffffffffffffffffffffffffffffffff16021790555060808201518160030160146101000a81548160ff0219169083151502179055509050507f809be85b619e8ef899c909c4791d95f2fe9f170a030f6c07aba79c5eac69a6cb600154838333600060405180868152602001806020018581526020018473ffffffffffffffffffffffffffffffffffffffff1673ffffffffffffffffffffffffffffffffffffffff16815260200183151515158152602001828103825286818151815260200191508051906020019080838360005b838110156109be5780820151818401526020810190506109a3565b50505050905090810190601f1680156109eb5780820380516001836020036101000a031916815260200191505b50965050505050505060405180910390a15050565b6002602052806000526040600020600091509050806000015490806001018054600181600116156101000203166002900480601f016020809104026020016040519081016040528092919081815260200182805460018160011615610100020316600290048015610ab25780601f10610a8757610100808354040283529160200191610ab2565b820191906000526020600020905b815481529060010190602001808311610a9557829003601f168201915b5050505050908060020154908060030160009054906101000a900473ffffffffffffffffffffffffffffffffffffffff16908060030160149054906101000a900460ff16905085565b60a060405190810160405280600081526020016060815260200160008152602001600073ffffffffffffffffffffffffffffffffffffffff1681526020016000151581525090565b828054600181600116156101000203166002900490600052602060002090601f016020900481019282601f10610b8457805160ff1916838001178555610bb2565b82800160010185558215610bb2579182015b82811115610bb1578251825591602001919060010190610b96565b5b509050610bbf9190610bc3565b5090565b610be591905b80821115610be1576000816000905550600101610bc9565b5090565b9056fea165627a7a72305820a20d6e20528e29cc4b8f6af229ab25899f07c626ef71756e0b45aeca671bf2d90029",
  "source": "pragma solidity ^0.5.0;\r\n\r\ncontract USM_Marketplace{\r\n\tstring public name; //global variable. Can access it outside the smart contract using public.\r\n\tuint public productCounter = 0;\r\n    mapping (uint => Usm_Product) public usmproducts; //uint id is the key for this mapping\r\n\r\n    struct Usm_Product{ //every product will follow this pattern\r\n       uint id; //means positive integer\r\n       string name;\r\n       uint price;\r\n       address payable owner;\r\n       bool purchased;\r\n    }\r\n    \r\n\r\n    event productCreate(\r\n       uint id,\r\n       string name,\r\n       uint price,\r\n       address payable owner,\r\n       bool purchased\r\n    );\r\n\r\n     event productPurchase(\r\n       uint id,\r\n       string name,\r\n       uint price,\r\n       address payable owner,\r\n       bool purchased\r\n    );\r\n\r\n\tconstructor() public{ //  only run once when smart contarct is deployed\r\n         name = \"USM Online Shopping\";\r\n\t} \r\n\r\n   function createProduct(string memory _name, uint _price) public{ //_name is local variable\r\n     //Require a valid name\r\n     require(bytes(_name).length > 0);\r\n     //Require a valid price\r\n     require(_price > 0);\r\n       //Make sure parameters are correct\r\n       //Increment Product count\r\n       productCounter++;\r\n      //Create products\r\n      //Trigger an event\r\n      usmproducts[productCounter] = Usm_Product(productCounter, _name, _price, msg.sender, false);\r\n      emit productCreate(productCounter, _name, _price, msg.sender, false);\r\n    }\r\n\r\n    function purchaseProduct(uint _id) public payable{  //use payable keyword to send ether to the seller\r\n  // Fetch the product\r\n    Usm_Product memory _product = usmproducts[_id];\r\n    // Fetch the owner\r\n    address payable _seller = _product.owner;\r\n    // Make sure the product has a valid id\r\n    require(_product.id > 0 && _product.id <= productCounter);\r\n    // Require that there is enough Ether in the transaction\r\n    require(msg.value >= _product.price);\r\n    // Require that the product has not been purchased already\r\n    require(!_product.purchased);\r\n    // Require that the buyer is not the seller\r\n    require(_seller != msg.sender);\r\n    // Transfer ownership to the buyer\r\n    _product.owner = msg.sender;\r\n    // Mark as purchased\r\n    _product.purchased = true;\r\n    // Update the product\r\n    usmproducts[_id] = _product;\r\n    // Pay the seller by sending them Ether\r\n    address(_seller).transfer(msg.value);\r\n    // Trigger an event\r\n    emit productPurchase(productCounter, _product.name, _product.price, msg.sender, true);\r\n\r\n    }\r\n}",
  "sourcePath": "C:/Users/GloryPc/marketplace/src/contracts/USM_Marketplace.sol",
  "compiler": {
    "name": "solc",
    "version": "0.5.0+commit.1d4f565a.Emscripten.clang"
  },
  "schemaVersion": "3.0.1",
  "updatedAt": "2020-10-21T15:06:03.913Z",
  "devdoc": {
    "methods": {}
  },
  "userdoc": {
    "methods": {}
  }
}